S01700003233303832395F3131685F554152542E7372656311
S113000045C000004BC0000049C0000047C00000CC
S113001045C0000043C0000041C000003FC00000D4
S11300203DC000003BC0000039C0000037C00000E4
S113003035C0000033C0000031C000002FC00000F4
S11300402DC000002BC0000029C0000027C0000004
S113005025C0000023C0000021C000001FC0000014
S11300601DC000001BC0000019C0000017C0000024
S113007015C0000013C0000011C000000FC0000034
S11300800DC000000BC0000009C0000011241FBEF9
S1130090CFEFD0E1DEBFCDBF19D01CC0B1CF1092DD
S11300A090008FEC89B98BB182608BB98AB1806181
S11300B08AB98AB188608AB908955D9BFECF8CB9EC
S11300C008955F9BFECF8CB190E00895E8DFF9DFDF
S10B00D0F4DFFDCFF894FFCF2B
S9030000FC
