S01B00003233303831345F41726475696E6F2B746573742E73726563BB
S11300000C9434000C9449000C9449000C9449005D
S11300100C9449000C9449000C9449000C94490038
S11300200C9449000C9449000C9449000C94490028
S11300300C9449000C9449000C9449000C94490018
S11300400C9449000C9449000C9449000C94490008
S11300500C9449000C9449000C9449000C944900F8
S11300600C9449000C94490011241FBECFEFD8E032
S1130070DEBFCDBF11E0A0E0B1E0EAEEF0E002C0E7
S113008005900D92A431B107D9F70E944E000C944B
S113009073000C9400008FEF8AB908950E944B00FE
S11300A080E090E012C0FC01EE0FFF1FE050FF4F14
S11300B0208120952BB92FEF39E648E121503040BB
S11300C04040E1F700C0000001968A3091055CF3DE
S11300D01BB88FEF9BE722E9815090402040E1F765
S10D00E000C00000DDCFF894FFCF4C
S11300EAFC006000DA00F2006600B600BE00E4001C
S10700FAFE00E6001A
S9030000FC
