S0130000323330383137494E5430332E737265638E
S113000045C0000060C000005EC000005CC000008D
S11300105AC0000059C0000056C0000054C000007F
S113002052C0000050C000004EC000004CC0000090
S11300304AC0000048C0000046C0000044C00000A0
S113004042C0000040C000003EC000003CC00000B0
S11300503AC0000038C0000036C0000034C00000C0
S113006032C0000030C000002EC000002CC00000D0
S11300702AC0000028C0000026C0000024C00000E0
S113008022C0000020C000001EC0000011241FBEBA
S1130090CFEFD0E1DEBFCDBF11E0A0E0B1E0E0E5FD
S11300A0F1E000E00BBF02C007900D92A230B1074F
S11300B0D9F721E0A2E0B1E001C01D92A330B2075C
S11300C0E1F711D043C09CCF1F920F920FB60F924D
S11300D011248F9381E0809302018F910F900FBEC2
S11300E00F901F9018958FEF81BB82B18F7E82B9DC
S11300F08091000182BB8AB782608ABF89B7806120
S113010089BF7894809102018823E1F32FEF80E77F
S113011092E0215080409040E1F700C000000C992B
S113012012C08091000190E0880F991F8160809334
S11301300001809100018F3F19F48EEF809300013C
S11301408091000182BB10920201DCCFF894FFCFB2
S1050150FE00AB
S9030000FC
