S0120000464E445F427574746F6E2E737265635F
S113000045C0000060C000005EC000005CC000008D
S11300105AC0000058C0000056C0000054C0000080
S113002052C0000050C000004EC000004CC0000090
S11300304AC0000048C0000046C0000044C00000A0
S113004091C1000040C000003EC000003CC0000060
S11300503AC0000038C0000036C0000034C00000C0
S113006032C0000030C000002EC000002CC00000D0
S11300702AC0000028C0000026C0000024C00000E0
S113008022C0000020C000001EC0000011241FBEBA
S1130090CFEFD0E1DEBFCDBF11E0A0E0B1E0EEE9EB
S11300A0F4E000E00BBF02C007900D92AA30B10744
S11300B0D9F721E0AAE0B1E001C01D92AD30B2074A
S11300C0E1F779D1EAC19CCFFC017183608353834A
S11300D04283248381E08583FB01308181E090E0C9
S11300E002C0880F991F2A95E2F7809583238083A5
S11300F00895FC01A281B3818C9121E030E0048059
S113010002C0220F331F0A94E2F7282371F4858179
S1130110813059F42FEF30E792E021503040904085
S1130120E1F700C0000015820895222381F0858143
S113013081110FC02FEF30E782E021503040804022
S1130140E1F700C0000081E0858382E0089580E04B
S1130150089580E00895E4E6F0E080818F60808374
S11301608FEF84BB0895803127E2920710F08FE06F
S113017097E290930C0180930B01089580910B01F9
S113018090910C010895E5E6F0E09081906F9083E2
S113019021E030E002C0220F331F8A95E2F7209558
S11301A020830895CF93DF93CDB7DEB72A970FB698
S11301B0F894DEBF0FBECDBF9AE0E0E0F1E0DE01CF
S11301C0119601900D929A95E1F7E1E0F0E0EC0FC1
S11301D0FD1FE80FF11D808185BB2A960FB6F894A8
S11301E0DEBF0FBECDBFDF91CF910895E5E6F0E00D
S11301F080818FEF80830895CF93DF93BFDFEC017D
S113020080910A0190E0019683709078992324F4F8
S113021001978C6F9F6F019680930A01E7DF8091AD
S11302200A01813021F138F0823009F445C083306D
S113023009F469C094C09E01ADECBCEC1FD1969545
S1130240879596958795969587959C01220F331FE0
S1130250880F991F880F991F880F991F820F931F6A
S11302602C2F281B822F9EDF83E08DDF78C09E0118
S1130270ADECBCEC03D1AC0156954795569547952A
S1130280569547959A01FAD09695879596958795B0
S1130290969587959C01220F331F880F991F880F0D
S11302A0991F880F991F820F931F242F281B822FB9
S11302B079DF82E068DF53C09E0136952795369535
S11302C02795ABE7B4E1DAD0AC01569547959A018E
S11302D0ADECBCECD3D0969587959695879596957D
S11302E087959C01220F331F880F991F880F991F30
S11302F0880F991F820F931F242F281B822F52DFF0
S113030081E041DF2CC09E013695279536952795CF
S113031036952795A5ECB0E2B1D0AC015295429543
S11303204F7045275F7045279A01ADECBCECA6D011
S11303309695879596958795969587959C01220F16
S1130340331F880F991F880F991F880F991F820FD9
S1130350931F242F281B822F25DF80E014DFDF91D9
S1130360CF9108951F920F920FB60F9211240BB6DE
S11303700F922F933F934F935F936F937F938F933A
S11303809F93AF93BF93EF93FF9336DF86E082BFD3
S1130390FF91EF91BF91AF919F918F917F916F9159
S11303A05F914F913F912F910F900BBE0F900FBE15
S11303B00F901F901895CF93DF93CDB7DEB72C978E
S11303C00FB6F894DEBF0FBECDBFC5DE83B7846021
S11303D083BF87B7816087BF86E082BF789420E0BF
S11303E049E350E06AE370E0CE0101966DDE21E05E
S11303F049E350E06AE370E0CE01079665DE10E061
S1130400E12CF12C112319F0113061F016C0CE014A
S113041001966FDE813061F0CE0107966ADE81308D
S113042061F408C0CE01019664DE813031F404C069
S113043011E003C012E001C010E0113039F018F0EF
S11304401230A9F0DFCFC7018EDEDCCF67012FEFBA
S1130450C21AD20AC70187DE8FEF91EE24E08150E1
S113046090402040E1F700C000007601CBCF80E04F
S113047090E079DE10E0E12CF12CC4CFA29FB00112
S1130480B39FC001A39F700D811D1124911DB29FC4
S1110490700D811D1124911D0895F894FFCF65
S10D049E3F065B4F666D7D277F6704
S9030000FC
