:100000000C9434000C943E000C943E000C943E0082
:100010000C943E000C943E000C943E000C943E0068
:100020000C943E000C943E000C943E000C943E0058
:100030000C943E000C943E000C943E000C943E0048
:100040000C943E000C943E000C943E000C943E0038
:100050000C943E000C943E000C943E000C943E0028
:100060000C943E000C943E0011241FBECFEFD8E04C
:10007000DEBFCDBF0E9440000C9495000C940000A0
:100080008FEF8AB914B81BB820E030E091E002C0CD
:1000900020E030E083B180FD12C09BB9492F50E0D1
:1000A000440F551F991F9927991F942B4FEF51EE1D
:1000B00064E0415050406040E1F700C0000081FD25
:1000C00010C09BB960E8969FA00111249695942BCF
:1000D0004FEF51EE64E0415050406040E1F700C006
:1000E000000082FD02C021E030E0482F487083FF0D
:1000F0001BB82130310571F68FEF8BB98FEF53ECC0
:1001000069E0815050406040E1F700C000001BB83A
:100110008FEF53EC69E0815050406040E1F700C040
:0E0120000000442309F4B4CFB5CFF894FFCF0C
:00000001FF
