S01800003233303831365F375F7365676D656E742E73726563F0
S11300000C9434000C9449000C9449000C9449005D
S11300100C9449000C9449000C9449000C94490038
S11300200C9449000C9449000C9449000C94490028
S11300300C9449000C9449000C9449000C94490018
S11300400C9449000C9449000C9449000C94490008
S11300500C9449000C9449000C9449000C944900F8
S11300600C9449000C94490011241FBECFEFD8E032
S1130070DEBFCDBF11E0A0E0B1E0E4EFF0E002C0EC
S113008005900D92A431B107D9F70E944B000C944E
S113009078000C9400008FEF84B98AB940E050E0F6
S11300A023C081E090E0042E02C0880F991F0A94B7
S11300B0E2F7809585B980E090E011C0FC01EE0F75
S11300C0FF1FE050FF4F20812BB92FEF35EA6EE080
S11300D0215030406040E1F700C0000001968A30B2
S11300E0910564F34F5F5F4F44305105D4F2D6CF8E
S10700F0F894FFCFAE
S11300F43F0006005B004F0066006D007D00270092
S10701047F006F0005
S9030000FC
