:100000000C9434000C943E000C943E000C943E0082
:100010000C943E000C943E000C943E000C943E0068
:100020000C943E000C943E000C943E000C943E0058
:100030000C943E000C943E000C943E000C943E0048
:100040000C943E000C943E000C943E000C943E0038
:100050000C943E000C943E000C943E000C943E0028
:100060000C943E000C943E0011241FBECFEFD8E04C
:10007000DEBFCDBF0E9440000C945F000C940000D6
:100080008FEF87B918B81AB8589BFECF2FEF33ED12
:1000900080E3215030408040E1F700C0000080E064
:1000A0000BC088B99FEF29E638E1915020403040DD
:1000B000E1F700C000008F5F883098F3E5CFF89437
:0200C000FFCF70
:00000001FF
